{
  "contractName": "TicTacToe",
  "abi": [
    {
      "constant": true,
      "inputs": [
        {
          "name": "",
          "type": "uint256"
        },
        {
          "name": "",
          "type": "uint256"
        }
      ],
      "name": "board",
      "outputs": [
        {
          "name": "",
          "type": "uint8"
        }
      ],
      "payable": false,
      "stateMutability": "view",
      "type": "function"
    },
    {
      "constant": true,
      "inputs": [],
      "name": "gameState",
      "outputs": [
        {
          "name": "",
          "type": "uint8"
        }
      ],
      "payable": false,
      "stateMutability": "view",
      "type": "function"
    },
    {
      "constant": true,
      "inputs": [
        {
          "name": "",
          "type": "uint256"
        }
      ],
      "name": "players",
      "outputs": [
        {
          "name": "",
          "type": "address"
        }
      ],
      "payable": false,
      "stateMutability": "view",
      "type": "function"
    },
    {
      "inputs": [],
      "payable": false,
      "stateMutability": "nonpayable",
      "type": "constructor"
    },
    {
      "anonymous": false,
      "inputs": [
        {
          "indexed": false,
          "name": "byPlayer",
          "type": "address"
        },
        {
          "indexed": false,
          "name": "x_coor",
          "type": "uint8"
        },
        {
          "indexed": false,
          "name": "y_coor",
          "type": "uint8"
        }
      ],
      "name": "MoveMade",
      "type": "event"
    },
    {
      "anonymous": false,
      "inputs": [
        {
          "indexed": false,
          "name": "winner",
          "type": "address"
        }
      ],
      "name": "GameOver",
      "type": "event"
    },
    {
      "constant": true,
      "inputs": [],
      "name": "whoAmI",
      "outputs": [
        {
          "name": "",
          "type": "address"
        }
      ],
      "payable": false,
      "stateMutability": "view",
      "type": "function"
    },
    {
      "constant": true,
      "inputs": [],
      "name": "getBoard",
      "outputs": [
        {
          "name": "",
          "type": "uint8[3][3]"
        }
      ],
      "payable": false,
      "stateMutability": "view",
      "type": "function"
    },
    {
      "constant": true,
      "inputs": [],
      "name": "getPlayers",
      "outputs": [
        {
          "name": "",
          "type": "address[2]"
        }
      ],
      "payable": false,
      "stateMutability": "view",
      "type": "function"
    },
    {
      "constant": false,
      "inputs": [],
      "name": "joinGame",
      "outputs": [],
      "payable": false,
      "stateMutability": "nonpayable",
      "type": "function"
    },
    {
      "constant": false,
      "inputs": [],
      "name": "cancelGameIfNotStarted",
      "outputs": [],
      "payable": false,
      "stateMutability": "nonpayable",
      "type": "function"
    },
    {
      "constant": false,
      "inputs": [
        {
          "name": "x_coor",
          "type": "uint8"
        },
        {
          "name": "y_coor",
          "type": "uint8"
        }
      ],
      "name": "makeMove",
      "outputs": [],
      "payable": false,
      "stateMutability": "nonpayable",
      "type": "function"
    },
    {
      "constant": false,
      "inputs": [],
      "name": "claimVictory",
      "outputs": [],
      "payable": false,
      "stateMutability": "nonpayable",
      "type": "function"
    },
    {
      "constant": true,
      "inputs": [],
      "name": "haveIWon",
      "outputs": [
        {
          "name": "",
          "type": "bool"
        }
      ],
      "payable": false,
      "stateMutability": "view",
      "type": "function"
    },
    {
      "constant": true,
      "inputs": [],
      "name": "isMyTurn",
      "outputs": [
        {
          "name": "",
          "type": "bool"
        }
      ],
      "payable": false,
      "stateMutability": "view",
      "type": "function"
    }
  ],
  "bytecode": "0x6060604052341561000f57600080fd5b6000803360008060028110151561002257fe5b0160006101000a81548173ffffffffffffffffffffffffffffffffffffffff021916908373ffffffffffffffffffffffffffffffffffffffff160217905550600080600160028110151561007257fe5b0160006101000a81548173ffffffffffffffffffffffffffffffffffffffff021916908373ffffffffffffffffffffffffffffffffffffffff160217905550600091505b60038260ff16101561013257600090505b60038160ff16101561012557600060038360ff166003811015156100e757fe5b018260ff166003811015156100f857fe5b602091828204019190066101000a81548160ff021916908360ff16021790555080806001019150506100c7565b81806001019250506100b6565b6000600260006101000a81548160ff0219169083600381111561015157fe5b02179055505050611338806101676000396000f3006060604052600436106100ba576000357c0100000000000000000000000000000000000000000000000000000000900463ffffffff1680631abddf33146100bf5780633264a34b146100d4578063491625241461014857806353520bf11461015d5780635e24b0f11461018a5780638086a92a146101bc5780638b5b9ccc14610202578063a2fbe98c14610253578063d1f9c24d14610280578063d4f77b1c146102b7578063da91254c146102cc578063f71d96cb14610321575b600080fd5b34156100ca57600080fd5b6100d2610384565b005b34156100df57600080fd5b6100e76104f1565b604051808260036000925b818410156101385782846020020151600360200280838360005b8381101561012757808201518184015260208101905061010c565b5050505090500192600101926100f2565b9250505091505060405180910390f35b341561015357600080fd5b61015b610596565b005b341561016857600080fd5b61017061067a565b604051808215151515815260200191505060405180910390f35b341561019557600080fd5b6101ba600480803560ff1690602001909190803560ff169060200190919050506107a3565b005b34156101c757600080fd5b6101e660048080359060200190919080359060200190919050506109d5565b604051808260ff1660ff16815260200191505060405180910390f35b341561020d57600080fd5b610215610a0f565b6040518082600260200280838360005b83811015610240578082015181840152602081019050610225565b5050505090500191505060405180910390f35b341561025e57600080fd5b610266610a90565b604051808215151515815260200191505060405180910390f35b341561028b57600080fd5b610293610aa7565b604051808260038111156102a357fe5b60ff16815260200191505060405180910390f35b34156102c257600080fd5b6102ca610aba565b005b34156102d757600080fd5b6102df610c95565b604051808273ffffffffffffffffffffffffffffffffffffffff1673ffffffffffffffffffffffffffffffffffffffff16815260200191505060405180910390f35b341561032c57600080fd5b6103426004808035906020019091905050610c9d565b604051808273ffffffffffffffffffffffffffffffffffffffff1673ffffffffffffffffffffffffffffffffffffffff16815260200191505060405180910390f35b60008060028110151561039357fe5b0160009054906101000a900473ffffffffffffffffffffffffffffffffffffffff1673ffffffffffffffffffffffffffffffffffffffff163373ffffffffffffffffffffffffffffffffffffffff16148061044a5750600060016002811015156103f957fe5b0160009054906101000a900473ffffffffffffffffffffffffffffffffffffffff1673ffffffffffffffffffffffffffffffffffffffff163373ffffffffffffffffffffffffffffffffffffffff16145b151561045557600080fd5b61045d610a90565b151561046857600080fd5b6003600260006101000a81548160ff0219169083600381111561048757fe5b02179055507ff556ad7790e70877edcf3b3bb441255def8a405faa0dfdb005a02fa8e557bca933604051808273ffffffffffffffffffffffffffffffffffffffff1673ffffffffffffffffffffffffffffffffffffffff16815260200191505060405180910390a1565b6104f9611275565b60038080602002604051908101604052809291906000905b8282101561058d57838201600380602002604051908101604052809291908260038015610579576020028201916000905b82829054906101000a900460ff1660ff16815260200190600101906020826000010492830192600103820291508084116105425790505b505050505081526020019060010190610511565b50505050905090565b6000806002811015156105a557fe5b0160009054906101000a900473ffffffffffffffffffffffffffffffffffffffff1673ffffffffffffffffffffffffffffffffffffffff163373ffffffffffffffffffffffffffffffffffffffff1614151561060057600080fd5b600080600160028110151561061157fe5b0160009054906101000a900473ffffffffffffffffffffffffffffffffffffffff1673ffffffffffffffffffffffffffffffffffffffff1614151561065557600080fd5b60028060006101000a81548160ff0219169083600381111561067357fe5b0217905550565b600080600060028110151561068b57fe5b0160009054906101000a900473ffffffffffffffffffffffffffffffffffffffff1673ffffffffffffffffffffffffffffffffffffffff163373ffffffffffffffffffffffffffffffffffffffff1614806107425750600060016002811015156106f157fe5b0160009054906101000a900473ffffffffffffffffffffffffffffffffffffffff1673ffffffffffffffffffffffffffffffffffffffff163373ffffffffffffffffffffffffffffffffffffffff16145b151561074d57600080fd5b3373ffffffffffffffffffffffffffffffffffffffff16600660009054906101000a900473ffffffffffffffffffffffffffffffffffffffff1673ffffffffffffffffffffffffffffffffffffffff1614905090565b600660009054906101000a900473ffffffffffffffffffffffffffffffffffffffff1673ffffffffffffffffffffffffffffffffffffffff163373ffffffffffffffffffffffffffffffffffffffff161415156107ff57600080fd5b6001600381111561080c57fe5b600260009054906101000a900460ff16600381111561082757fe5b14151561083357600080fd5b600060038360ff1660038110151561084757fe5b018260ff1660038110151561085857fe5b602091828204019190069054906101000a900460ff1660ff1614151561087d57600080fd5b610885610cd2565b60038360ff1660038110151561089757fe5b018260ff166003811015156108a857fe5b602091828204019190066101000a81548160ff021916908360ff160217905550600060026108d4610cd2565b60ff168115156108e057fe5b0660ff166002811015156108f057fe5b0160009054906101000a900473ffffffffffffffffffffffffffffffffffffffff16600660006101000a81548173ffffffffffffffffffffffffffffffffffffffff021916908373ffffffffffffffffffffffffffffffffffffffff1602179055507f10ac166a969b6ae9b140c9d6b88c6c4e565e4fc22f858bf92f1542535f0f161a338383604051808473ffffffffffffffffffffffffffffffffffffffff1673ffffffffffffffffffffffffffffffffffffffff1681526020018360ff1660ff1681526020018260ff1660ff168152602001935050505060405180910390a15050565b6003826003811015156109e457fe5b01816003811015156109f257fe5b60209182820401919006915091509054906101000a900460ff1681565b610a176112a4565b6000600280602002604051908101604052809291908260028015610a86576020028201915b8160009054906101000a900473ffffffffffffffffffffffffffffffffffffffff1673ffffffffffffffffffffffffffffffffffffffff1681526020019060010190808311610a3c575b5050505050905090565b6000610aa2610a9d610cd2565b610d46565b905090565b600260009054906101000a900460ff1681565b60006003811115610ac757fe5b600260009054906101000a900460ff166003811115610ae257fe5b141515610aee57600080fd5b6000806001600281101515610aff57fe5b0160009054906101000a900473ffffffffffffffffffffffffffffffffffffffff1673ffffffffffffffffffffffffffffffffffffffff16141515610b4357600080fd5b3373ffffffffffffffffffffffffffffffffffffffff16600080600281101515610b6957fe5b0160009054906101000a900473ffffffffffffffffffffffffffffffffffffffff1673ffffffffffffffffffffffffffffffffffffffff1614151515610bae57600080fd5b3360006001600281101515610bbf57fe5b0160006101000a81548173ffffffffffffffffffffffffffffffffffffffff021916908373ffffffffffffffffffffffffffffffffffffffff160217905550600080600281101515610c0d57fe5b0160009054906101000a900473ffffffffffffffffffffffffffffffffffffffff16600660006101000a81548173ffffffffffffffffffffffffffffffffffffffff021916908373ffffffffffffffffffffffffffffffffffffffff1602179055506001600260006101000a81548160ff02191690836003811115610c8e57fe5b0217905550565b600033905090565b600081600281101515610cac57fe5b016000915054906101000a900473ffffffffffffffffffffffffffffffffffffffff1681565b6000806000600281101515610ce357fe5b0160009054906101000a900473ffffffffffffffffffffffffffffffffffffffff1673ffffffffffffffffffffffffffffffffffffffff163373ffffffffffffffffffffffffffffffffffffffff1614610d3e576002610d41565b60015b905090565b60008060008060008560ff1660036000600381101515610d6257fe5b016000600381101515610d7157fe5b602091828204019190069054906101000a900460ff1660ff161415610f41578560ff1660036000600381101515610da457fe5b016001600381101515610db357fe5b602091828204019190069054906101000a900460ff1660ff16148015610e1257508560ff1660036000600381101515610de857fe5b016002600381101515610df757fe5b602091828204019190069054906101000a900460ff1660ff16145b15610e20576001945061126c565b8560ff1660036001600381101515610e3457fe5b016000600381101515610e4357fe5b602091828204019190069054906101000a900460ff1660ff16148015610ea257508560ff1660036002600381101515610e7857fe5b016000600381101515610e8757fe5b602091828204019190069054906101000a900460ff1660ff16145b15610eb0576001945061126c565b8560ff1660036001600381101515610ec457fe5b016001600381101515610ed357fe5b602091828204019190069054906101000a900460ff1660ff16148015610f3257508560ff1660036002600381101515610f0857fe5b016002600381101515610f1757fe5b602091828204019190069054906101000a900460ff1660ff16145b15610f40576001945061126c565b5b8560ff1660036000600381101515610f5557fe5b016002600381101515610f6457fe5b602091828204019190069054906101000a900460ff1660ff16141561107b57600093505b60038460ff16101561107a578560ff1660038560ff16600381101515610faa57fe5b016000600381101515610fb957fe5b602091828204019190069054906101000a900460ff1660ff16141561106d578560ff1660038560ff16600381101515610fee57fe5b016001600381101515610ffd57fe5b602091828204019190069054906101000a900460ff1660ff1614801561105e57508560ff1660038560ff1660038110151561103457fe5b01600260038110151561104357fe5b602091828204019190069054906101000a900460ff1660ff16145b1561106c576001945061126c565b5b8380600101945050610f88565b5b600092505b60038360ff161015611172578560ff16600360006003811015156110a057fe5b018460ff166003811015156110b157fe5b602091828204019190069054906101000a900460ff1660ff161415611165578560ff16600360016003811015156110e457fe5b018460ff166003811015156110f557fe5b602091828204019190069054906101000a900460ff1660ff1614801561115657508560ff166003600260038110151561112a57fe5b018460ff1660038110151561113b57fe5b602091828204019190069054906101000a900460ff1660ff16145b15611164576001945061126c565b5b8280600101935050611080565b60019150600090505b60038160ff1610156111e4578560ff1660038260ff1660038110151561119d57fe5b018260ff166003811015156111ae57fe5b602091828204019190069054906101000a900460ff1660ff161415156111d757600091506111e4565b808060010191505061117b565b81156111f3576001945061126c565b60009150600090505b60038160ff161015611268578560ff1660038260ff1660038110151561121e57fe5b018260020360ff1660038110151561123257fe5b602091828204019190069054906101000a900460ff1660ff1614151561125b5760009150611268565b80806001019150506111fc565b8194505b50505050919050565b610120604051908101604052806003905b61128e6112e1565b8152602001906001900390816112865790505090565b60408051908101604052806002905b600073ffffffffffffffffffffffffffffffffffffffff168152602001906001900390816112b35790505090565b6060604051908101604052806003905b600060ff168152602001906001900390816112f157905050905600a165627a7a723058206d8d50fa53d9982f07edb3f08e69221e5ab40de4039b782a08dab475232a88430029",
  "source": "pragma solidity ^0.4.17;\r\n\r\ncontract TicTacToe {\r\n    address[2] public players;\r\n    GameState public gameState;\r\n    uint8[3][3] public board;\r\n\r\n    enum GameState {\r\n        NotStarted,\r\n        Started,\r\n        Cancelled,\r\n        GameOver\r\n    }\r\n\r\n    address activePlayer; // contains the addres of the player who's turn it is\r\n\r\n    event MoveMade (address byPlayer, uint8 x_coor, uint8 y_coor);\r\n    event GameOver(address winner);\r\n\r\n    modifier isPlayer() {\r\n        require(msg.sender == players[0] || msg.sender == players[1]);\r\n        _;\r\n    }\r\n\r\n    modifier isCreator() {\r\n        require(msg.sender == players[0]);\r\n        _;\r\n    }\r\n\r\n    modifier isActivePlayer() {\r\n        require(msg.sender == activePlayer);\r\n        _;\r\n    }\r\n\r\n    // test func\r\n    function whoAmI() public view returns(address) {\r\n        return msg.sender;\r\n    }\r\n\r\n    // Start a new game\r\n    // The sender becomes player1\r\n    function TicTacToe() public {\r\n        players[0] = msg.sender;\r\n        players[1] = 0;\r\n        \r\n        // initialize board values\r\n        for(uint8 i = 0; i < 3; i++) {\r\n            for (uint8 j = 0; j < 3; j++){\r\n                board[i][j] = 0;\r\n            }\r\n        }\r\n\r\n        gameState = GameState.NotStarted;\r\n    }\r\n\r\n    function getBoard() public view returns (uint8[3][3]) {\r\n        return board;\r\n    }\r\n\r\n    function getPlayers() public view returns (address[2]) {\r\n        return players;\r\n    }\r\n\r\n    // the first person to join the game becomes player 2\r\n    function joinGame() public {\r\n        // Can someone join?\r\n        require(gameState == GameState.NotStarted);\r\n\r\n        // Is there already a player2?\r\n        require(players[1] == 0);\r\n\r\n        // Don't play with yourself\r\n        require(players[0] != msg.sender);        \r\n        \r\n        players[1] = msg.sender;\r\n        activePlayer = players[0];\r\n        gameState = GameState.Started;\r\n    }\r\n\r\n    // Cancel the game if it hasn't begun yet\r\n    function cancelGameIfNotStarted() public isCreator {\r\n        require(players[1] == 0);\r\n        gameState = GameState.Cancelled;\r\n    }\r\n\r\n    // The board is a 3x3 board. Enter values between \r\n    // 0 and 2 for x_coor and y_coor, corresponding to\r\n    // where you want to place your piece\r\n    function makeMove(uint8 x_coor, uint8 y_coor) public isActivePlayer {\r\n        require(gameState == GameState.Started);\r\n        require(board[x_coor][y_coor] == 0);\r\n\r\n        board[x_coor][y_coor] = getPlayerNumber();\r\n        activePlayer = players[getPlayerNumber() % 2]; // get index of other player\r\n\r\n        MoveMade(msg.sender, x_coor, y_coor);\r\n    }\r\n\r\n    function claimVictory() public isPlayer{\r\n        require (haveIWon());\r\n        \r\n        gameState = GameState.GameOver;\r\n        GameOver(msg.sender);\r\n    }\r\n\r\n    function getPlayerNumber() private view returns(uint8) {\r\n        return msg.sender == players[0] ? 1 : 2;\r\n    }\r\n\r\n    function haveIWon() public view returns(bool) {\r\n        return isPlayerVictorious(getPlayerNumber());\r\n    }\r\n\r\n    function isMyTurn() public view isPlayer returns(bool) {\r\n        return activePlayer == msg.sender;\r\n    }\r\n\r\n    function isPlayerVictorious(uint8 playerNum) private view returns(bool) {\r\n\r\n        if (board[0][0] == playerNum) {\r\n            if (board[0][1] == playerNum && \r\n                board[0][2] == playerNum) {\r\n                \r\n                return true;\r\n            }\r\n\r\n            if (board[1][0] == playerNum && \r\n                board[2][0] == playerNum) {\r\n                \r\n                return true;\r\n            }\r\n\r\n            if (board[1][1] == playerNum &&\r\n                board[2][2] == playerNum){\r\n\r\n                return true;\r\n            }\r\n        }\r\n\r\n        if (board[0][2] == playerNum)\r\n\r\n        // check rows\r\n        for (uint8 x = 0; x < 3; x++) {\r\n            if (board[x][0] == playerNum){\r\n                if (board[x][1] == playerNum && \r\n                    board[x][2] == playerNum) {\r\n                        return true;\r\n                }\r\n            }\r\n        }\r\n\r\n        // check columns\r\n        for (uint8 y = 0; y < 3; y++) {\r\n            if (board[0][y] == playerNum){\r\n                if (board[1][y] == playerNum && \r\n                    board[2][y] == playerNum) {\r\n                        return true;\r\n                }\r\n            }\r\n        }\r\n\r\n        // check diagonal\r\n        bool matchFound = true;\r\n        for (uint8 i = 0; i < 3; i++) {\r\n            if (board[i][i] != playerNum) {\r\n                matchFound = false;\r\n                break;\r\n            }\r\n        }\r\n        if (matchFound) return true;\r\n\r\n        // check the other diagonal\r\n        matchFound = false;\r\n        for (i = 0; i < 3; i++) {\r\n            if (board[i][2-i] != playerNum) {\r\n                matchFound = false;\r\n                break;\r\n            }\r\n        }\r\n\r\n        return matchFound;\r\n    }\r\n}",
  "sourcePath": "C:\\code\\Ethereum\\TheSchool.ai\\ticTacTournament-submission\\contracts\\TicTacToe.sol",
  "compiler": {
    "name": "solc",
    "version": "0.4.19+commit.c4cbbb05.Emscripten.clang"
  },
  "schemaVersion": "2.0.0",
  "updatedAt": "2018-04-27T07:39:49.791Z"
}